{
  "contractName": "RedEnvelope",
  "abi": [
    {
      "anonymous": false,
      "inputs": [
        {
          "indexed": true,
          "internalType": "uint256",
          "name": "envelopeId",
          "type": "uint256"
        },
        {
          "indexed": true,
          "internalType": "address",
          "name": "claimer",
          "type": "address"
        },
        {
          "indexed": false,
          "internalType": "uint256",
          "name": "amount",
          "type": "uint256"
        },
        {
          "indexed": false,
          "internalType": "uint8",
          "name": "remainingSlots",
          "type": "uint8"
        },
        {
          "indexed": false,
          "internalType": "uint256",
          "name": "remainingAmount",
          "type": "uint256"
        }
      ],
      "name": "EnvelopeClaimed",
      "type": "event"
    },
    {
      "anonymous": false,
      "inputs": [
        {
          "indexed": true,
          "internalType": "uint256",
          "name": "envelopeId",
          "type": "uint256"
        },
        {
          "indexed": true,
          "internalType": "address",
          "name": "creator",
          "type": "address"
        },
        {
          "indexed": false,
          "internalType": "uint256",
          "name": "amount",
          "type": "uint256"
        },
        {
          "indexed": false,
          "internalType": "uint8",
          "name": "totalSlots",
          "type": "uint8"
        },
        {
          "indexed": false,
          "internalType": "bool",
          "name": "equalShare",
          "type": "bool"
        },
        {
          "indexed": false,
          "internalType": "uint256",
          "name": "createdAt",
          "type": "uint256"
        }
      ],
      "name": "EnvelopeCreated",
      "type": "event"
    },
    {
      "anonymous": false,
      "inputs": [
        {
          "indexed": true,
          "internalType": "uint256",
          "name": "envelopeId",
          "type": "uint256"
        },
        {
          "indexed": true,
          "internalType": "address",
          "name": "creator",
          "type": "address"
        },
        {
          "indexed": false,
          "internalType": "uint256",
          "name": "amount",
          "type": "uint256"
        }
      ],
      "name": "EnvelopeReclaimed",
      "type": "event"
    },
    {
      "stateMutability": "payable",
      "type": "fallback"
    },
    {
      "inputs": [],
      "name": "CLAIM_WINDOW",
      "outputs": [
        {
          "internalType": "uint256",
          "name": "",
          "type": "uint256"
        }
      ],
      "stateMutability": "view",
      "type": "function"
    },
    {
      "inputs": [],
      "name": "MAX_SLOTS",
      "outputs": [
        {
          "internalType": "uint8",
          "name": "",
          "type": "uint8"
        }
      ],
      "stateMutability": "view",
      "type": "function"
    },
    {
      "inputs": [],
      "name": "MIN_SLOTS",
      "outputs": [
        {
          "internalType": "uint8",
          "name": "",
          "type": "uint8"
        }
      ],
      "stateMutability": "view",
      "type": "function"
    },
    {
      "inputs": [
        {
          "internalType": "uint256",
          "name": "",
          "type": "uint256"
        }
      ],
      "name": "envelopes",
      "outputs": [
        {
          "internalType": "address",
          "name": "creator",
          "type": "address"
        },
        {
          "internalType": "uint256",
          "name": "totalAmount",
          "type": "uint256"
        },
        {
          "internalType": "uint256",
          "name": "remainingAmount",
          "type": "uint256"
        },
        {
          "internalType": "uint8",
          "name": "totalSlots",
          "type": "uint8"
        },
        {
          "internalType": "uint8",
          "name": "remainingSlots",
          "type": "uint8"
        },
        {
          "internalType": "bool",
          "name": "equalShare",
          "type": "bool"
        },
        {
          "internalType": "uint64",
          "name": "createdAt",
          "type": "uint64"
        },
        {
          "internalType": "bool",
          "name": "reclaimed",
          "type": "bool"
        }
      ],
      "stateMutability": "view",
      "type": "function"
    },
    {
      "inputs": [
        {
          "internalType": "uint256",
          "name": "",
          "type": "uint256"
        },
        {
          "internalType": "address",
          "name": "",
          "type": "address"
        }
      ],
      "name": "hasClaimed",
      "outputs": [
        {
          "internalType": "bool",
          "name": "",
          "type": "bool"
        }
      ],
      "stateMutability": "view",
      "type": "function"
    },
    {
      "stateMutability": "payable",
      "type": "receive"
    },
    {
      "inputs": [
        {
          "internalType": "uint8",
          "name": "totalSlots",
          "type": "uint8"
        },
        {
          "internalType": "bool",
          "name": "equalShare",
          "type": "bool"
        }
      ],
      "name": "createEnvelope",
      "outputs": [
        {
          "internalType": "uint256",
          "name": "envelopeId",
          "type": "uint256"
        }
      ],
      "stateMutability": "payable",
      "type": "function"
    },
    {
      "inputs": [
        {
          "internalType": "uint256",
          "name": "envelopeId",
          "type": "uint256"
        }
      ],
      "name": "claim",
      "outputs": [],
      "stateMutability": "nonpayable",
      "type": "function"
    },
    {
      "inputs": [
        {
          "internalType": "uint256",
          "name": "envelopeId",
          "type": "uint256"
        }
      ],
      "name": "reclaimExpired",
      "outputs": [],
      "stateMutability": "nonpayable",
      "type": "function"
    },
    {
      "inputs": [
        {
          "internalType": "uint256",
          "name": "envelopeId",
          "type": "uint256"
        }
      ],
      "name": "getEnvelope",
      "outputs": [
        {
          "internalType": "address",
          "name": "creator",
          "type": "address"
        },
        {
          "internalType": "uint256",
          "name": "totalAmount",
          "type": "uint256"
        },
        {
          "internalType": "uint256",
          "name": "remainingAmount",
          "type": "uint256"
        },
        {
          "internalType": "uint8",
          "name": "totalSlots",
          "type": "uint8"
        },
        {
          "internalType": "uint8",
          "name": "remainingSlots",
          "type": "uint8"
        },
        {
          "internalType": "bool",
          "name": "equalShare",
          "type": "bool"
        },
        {
          "internalType": "uint64",
          "name": "createdAt",
          "type": "uint64"
        },
        {
          "internalType": "bool",
          "name": "reclaimed",
          "type": "bool"
        },
        {
          "internalType": "bool",
          "name": "expired",
          "type": "bool"
        }
      ],
      "stateMutability": "view",
      "type": "function"
    },
    {
      "inputs": [
        {
          "internalType": "uint256",
          "name": "envelopeId",
          "type": "uint256"
        },
        {
          "internalType": "address",
          "name": "user",
          "type": "address"
        }
      ],
      "name": "claimed",
      "outputs": [
        {
          "internalType": "bool",
          "name": "",
          "type": "bool"
        }
      ],
      "stateMutability": "view",
      "type": "function"
    }
  ],
  "bytecode": "0x6080604052600160005534801561001557600080fd5b50611e81806100256000396000f3fe6080604052600436106100b2576000357c0100000000000000000000000000000000000000000000000000000000900480639f34fc80116100765780639f34fc801461023d578063ae888f9c14610268578063c0f3f2e914610293578063ce8b217e146102be578063cf4a748c146102ee576100f2565b806301bb9baa1461012d578063120aa877146101565780631df9578614610193578063379607f5146101d7578063873f6f9e14610200576100f2565b366100f2576040517f08c379a00000000000000000000000000000000000000000000000000000000081526004016100e990611285565b60405180910390fd5b6040517f08c379a000000000000000000000000000000000000000000000000000000000815260040161012490611285565b60405180910390fd5b34801561013957600080fd5b50610154600480360381019061014f91906112e0565b610333565b005b34801561016257600080fd5b5061017d6004803603810190610178919061136b565b610724565b60405161018a91906113c6565b60405180910390f35b34801561019f57600080fd5b506101ba60048036038101906101b591906112e0565b61078c565b6040516101ce98979695949392919061143e565b60405180910390f35b3480156101e357600080fd5b506101fe60048036038101906101f991906112e0565b61083c565b005b34801561020c57600080fd5b506102276004803603810190610222919061136b565b610cb1565b60405161023491906113c6565b60405180910390f35b34801561024957600080fd5b50610252610ce0565b60405161025f91906114bc565b60405180910390f35b34801561027457600080fd5b5061027d610ce6565b60405161028a91906114d7565b60405180910390f35b34801561029f57600080fd5b506102a8610ceb565b6040516102b591906114d7565b60405180910390f35b6102d860048036038101906102d3919061154a565b610cf0565b6040516102e591906114bc565b60405180910390f35b3480156102fa57600080fd5b50610315600480360381019061031091906112e0565b610f92565b60405161032a9998979695949392919061158a565b60405180910390f35b600160009054906101000a900460ff1615610383576040517f08c379a000000000000000000000000000000000000000000000000000000000815260040161037a90611663565b60405180910390fd5b60018060006101000a81548160ff0219169083151502179055506000600260008381526020019081526020016000209050600073ffffffffffffffffffffffffffffffffffffffff168160000160009054906101000a900473ffffffffffffffffffffffffffffffffffffffff1673ffffffffffffffffffffffffffffffffffffffff1603610447576040517f08c379a000000000000000000000000000000000000000000000000000000000815260040161043e906116cf565b60405180910390fd5b8060000160009054906101000a900473ffffffffffffffffffffffffffffffffffffffff1673ffffffffffffffffffffffffffffffffffffffff163373ffffffffffffffffffffffffffffffffffffffff16146104d9576040517f08c379a00000000000000000000000000000000000000000000000000000000081526004016104d09061173b565b60405180910390fd5b6104e281611102565b610521576040517f08c379a0000000000000000000000000000000000000000000000000000000008152600401610518906117a7565b60405180910390fd5b80600301600b9054906101000a900460ff1615610573576040517f08c379a000000000000000000000000000000000000000000000000000000000815260040161056a90611813565b60405180910390fd5b60008160020154116105ba576040517f08c379a00000000000000000000000000000000000000000000000000000000081526004016105b19061187f565b60405180910390fd5b6000816002015490506000826002018190555060008260030160016101000a81548160ff021916908360ff160217905550600182600301600b6101000a81548160ff02191690831515021790555060003373ffffffffffffffffffffffffffffffffffffffff168260405161062e906118d0565b60006040518083038185875af1925050503d806000811461066b576040519150601f19603f3d011682016040523d82523d6000602084013e610670565b606091505b50509050806106b4576040517f08c379a00000000000000000000000000000000000000000000000000000000081526004016106ab90611931565b60405180910390fd5b3373ffffffffffffffffffffffffffffffffffffffff16847f05382b25f1672677c54404f9271c06192ba0b929c07f2f7cc4bb08e164e39ea7846040516106fb91906114bc565b60405180910390a35050506000600160006101000a81548160ff02191690831515021790555050565b60006003600084815260200190815260200160002060008373ffffffffffffffffffffffffffffffffffffffff1673ffffffffffffffffffffffffffffffffffffffff16815260200190815260200160002060009054906101000a900460ff16905092915050565b60026020528060005260406000206000915090508060000160009054906101000a900473ffffffffffffffffffffffffffffffffffffffff16908060010154908060020154908060030160009054906101000a900460ff16908060030160019054906101000a900460ff16908060030160029054906101000a900460ff16908060030160039054906101000a900467ffffffffffffffff169080600301600b9054906101000a900460ff16905088565b600160009054906101000a900460ff161561088c576040517f08c379a000000000000000000000000000000000000000000000000000000000815260040161088390611663565b60405180910390fd5b60018060006101000a81548160ff0219169083151502179055506000600260008381526020019081526020016000209050600073ffffffffffffffffffffffffffffffffffffffff168160000160009054906101000a900473ffffffffffffffffffffffffffffffffffffffff1673ffffffffffffffffffffffffffffffffffffffff1603610950576040517f08c379a0000000000000000000000000000000000000000000000000000000008152600401610947906116cf565b60405180910390fd5b61095981611102565b15610999576040517f08c379a00000000000000000000000000000000000000000000000000000000081526004016109909061199d565b60405180910390fd5b60008160030160019054906101000a900460ff16905060008160ff16116109f5576040517f08c379a00000000000000000000000000000000000000000000000000000000081526004016109ec90611a09565b60405180910390fd5b6003600084815260200190815260200160002060003373ffffffffffffffffffffffffffffffffffffffff1673ffffffffffffffffffffffffffffffffffffffff16815260200190815260200160002060009054906101000a900460ff1615610a93576040517f08c379a0000000000000000000000000000000000000000000000000000000008152600401610a8a90611a75565b60405180910390fd5b60008260020154905060008360030160029054906101000a900460ff16905060008460030160009054906101000a900460ff1690506000856001015490506000610ae186868686868d61113d565b90506001600360008a815260200190815260200160002060003373ffffffffffffffffffffffffffffffffffffffff1673ffffffffffffffffffffffffffffffffffffffff16815260200190815260200160002060006101000a81548160ff021916908315150217905550600186038760030160016101000a81548160ff021916908360ff160217905550808503876002018190555060003373ffffffffffffffffffffffffffffffffffffffff1682604051610b9d906118d0565b60006040518083038185875af1925050503d8060008114610bda576040519150601f19603f3d011682016040523d82523d6000602084013e610bdf565b606091505b5050905080610c23576040517f08c379a0000000000000000000000000000000000000000000000000000000008152600401610c1a90611931565b60405180910390fd5b3373ffffffffffffffffffffffffffffffffffffffff16897f7a4fb6dd2910c8bf78e6b3b149591c586e82e69969b3d21a92219da3e85474ed848b60030160019054906101000a900460ff168c60020154604051610c8393929190611a95565b60405180910390a350505050505050506000600160006101000a81548160ff02191690831515021790555050565b60036020528160005260406000206020528060005260406000206000915091509054906101000a900460ff1681565b61070881565b600381565b600a81565b6000600360ff168360ff1610158015610d105750600a60ff168360ff1611155b610d4f576040517f08c379a0000000000000000000000000000000000000000000000000000000008152600401610d4690611b18565b60405180910390fd5b60018360ff16610d5f9190611b67565b341015610da1576040517f08c379a0000000000000000000000000000000000000000000000000000000008152600401610d9890611bf5565b60405180910390fd5b6000549050600181016000819055506040518061010001604052803373ffffffffffffffffffffffffffffffffffffffff1681526020013481526020013481526020018460ff1681526020018460ff16815260200183151581526020014267ffffffffffffffff168152602001600015158152506002600083815260200190815260200160002060008201518160000160006101000a81548173ffffffffffffffffffffffffffffffffffffffff021916908373ffffffffffffffffffffffffffffffffffffffff160217905550602082015181600101556040820151816002015560608201518160030160006101000a81548160ff021916908360ff16021790555060808201518160030160016101000a81548160ff021916908360ff16021790555060a08201518160030160026101000a81548160ff02191690831515021790555060c08201518160030160036101000a81548167ffffffffffffffff021916908367ffffffffffffffff16021790555060e082015181600301600b6101000a81548160ff0219169083151502179055509050503373ffffffffffffffffffffffffffffffffffffffff16817ff96e0a128c2dfb33211420d6ad0d93c4e84991f562fc1b5d56c0a077704ef81034868642604051610f849493929190611c15565b60405180910390a392915050565b600080600080600080600080600080600260008c81526020019081526020016000209050600073ffffffffffffffffffffffffffffffffffffffff168160000160009054906101000a900473ffffffffffffffffffffffffffffffffffffffff1673ffffffffffffffffffffffffffffffffffffffff1603611049576040517f08c379a0000000000000000000000000000000000000000000000000000000008152600401611040906116cf565b60405180910390fd5b8060000160009054906101000a900473ffffffffffffffffffffffffffffffffffffffff16995080600101549850806002015497508060030160009054906101000a900460ff1696508060030160019054906101000a900460ff1695508060030160029054906101000a900460ff1694508060030160039054906101000a900467ffffffffffffffff16935080600301600b9054906101000a900460ff1692506110f281611102565b9150509193959799909294969850565b60006107088260030160039054906101000a900467ffffffffffffffff1667ffffffffffffffff166111349190611c5a565b42119050919050565b600060018760ff16036111525785905061121e565b84156111905760008460ff16846111699190611cbd565b9050600081148061117957508681115b15611187578691505061121e565b8091505061121e565b6000600180896111a09190611cee565b60ff166111ad9190611b67565b876111b89190611d23565b905060004233858a6040516020016111d39493929190611dcc565b6040516020818303038152906040528051906020012060019004905060006001836111fe9190611d23565b9050808261120c9190611e1a565b60016112189190611c5a565b93505050505b9695505050505050565b600082825260208201905092915050565b7f4449524543545f4445504f5349545f4e4f545f414c4c4f574544000000000000600082015250565b600061126f601a83611228565b915061127a82611239565b602082019050919050565b6000602082019050818103600083015261129e81611262565b9050919050565b600080fd5b6000819050919050565b6112bd816112aa565b81146112c857600080fd5b50565b6000813590506112da816112b4565b92915050565b6000602082840312156112f6576112f56112a5565b5b6000611304848285016112cb565b91505092915050565b600073ffffffffffffffffffffffffffffffffffffffff82169050919050565b60006113388261130d565b9050919050565b6113488161132d565b811461135357600080fd5b50565b6000813590506113658161133f565b92915050565b60008060408385031215611382576113816112a5565b5b6000611390858286016112cb565b92505060206113a185828601611356565b9150509250929050565b60008115159050919050565b6113c0816113ab565b82525050565b60006020820190506113db60008301846113b7565b92915050565b6113ea8161132d565b82525050565b6113f9816112aa565b82525050565b600060ff82169050919050565b611415816113ff565b82525050565b600067ffffffffffffffff82169050919050565b6114388161141b565b82525050565b600061010082019050611454600083018b6113e1565b611461602083018a6113f0565b61146e60408301896113f0565b61147b606083018861140c565b611488608083018761140c565b61149560a08301866113b7565b6114a260c083018561142f565b6114af60e08301846113b7565b9998505050505050505050565b60006020820190506114d160008301846113f0565b92915050565b60006020820190506114ec600083018461140c565b92915050565b6114fb816113ff565b811461150657600080fd5b50565b600081359050611518816114f2565b92915050565b611527816113ab565b811461153257600080fd5b50565b6000813590506115448161151e565b92915050565b60008060408385031215611561576115606112a5565b5b600061156f85828601611509565b925050602061158085828601611535565b9150509250929050565b6000610120820190506115a0600083018c6113e1565b6115ad602083018b6113f0565b6115ba604083018a6113f0565b6115c7606083018961140c565b6115d4608083018861140c565b6115e160a08301876113b7565b6115ee60c083018661142f565b6115fb60e08301856113b7565b6116096101008301846113b7565b9a9950505050505050505050565b7f5245454e5452414e43595f475541524400000000000000000000000000000000600082015250565b600061164d601083611228565b915061165882611617565b602082019050919050565b6000602082019050818103600083015261167c81611640565b9050919050565b7f454e56454c4f50455f4e4f545f464f554e440000000000000000000000000000600082015250565b60006116b9601283611228565b91506116c482611683565b602082019050919050565b600060208201905081810360008301526116e8816116ac565b9050919050565b7f4f4e4c595f43524541544f520000000000000000000000000000000000000000600082015250565b6000611725600c83611228565b9150611730826116ef565b602082019050919050565b6000602082019050818103600083015261175481611718565b9050919050565b7f4e4f545f45585049524544000000000000000000000000000000000000000000600082015250565b6000611791600b83611228565b915061179c8261175b565b602082019050919050565b600060208201905081810360008301526117c081611784565b9050919050565b7f414c52454144595f5245434c41494d4544000000000000000000000000000000600082015250565b60006117fd601183611228565b9150611808826117c7565b602082019050919050565b6000602082019050818103600083015261182c816117f0565b9050919050565b7f4e4f5448494e475f544f5f5245434c41494d0000000000000000000000000000600082015250565b6000611869601283611228565b915061187482611833565b602082019050919050565b600060208201905081810360008301526118988161185c565b9050919050565b600081905092915050565b50565b60006118ba60008361189f565b91506118c5826118aa565b600082019050919050565b60006118db826118ad565b9150819050919050565b7f5452414e534645525f4641494c45440000000000000000000000000000000000600082015250565b600061191b600f83611228565b9150611926826118e5565b602082019050919050565b6000602082019050818103600083015261194a8161190e565b9050919050565b7f454e56454c4f50455f4558504952454400000000000000000000000000000000600082015250565b6000611987601083611228565b915061199282611951565b602082019050919050565b600060208201905081810360008301526119b68161197a565b9050919050565b7f4e4f5f52454d41494e494e475f534c4f54530000000000000000000000000000600082015250565b60006119f3601283611228565b91506119fe826119bd565b602082019050919050565b60006020820190508181036000830152611a22816119e6565b9050919050565b7f414c52454144595f434c41494d45440000000000000000000000000000000000600082015250565b6000611a5f600f83611228565b9150611a6a82611a29565b602082019050919050565b60006020820190508181036000830152611a8e81611a52565b9050919050565b6000606082019050611aaa60008301866113f0565b611ab7602083018561140c565b611ac460408301846113f0565b949350505050565b7f494e56414c49445f534c4f545f434f554e540000000000000000000000000000600082015250565b6000611b02601283611228565b9150611b0d82611acc565b602082019050919050565b60006020820190508181036000830152611b3181611af5565b9050919050565b7f4e487b7100000000000000000000000000000000000000000000000000000000600052601160045260246000fd5b6000611b72826112aa565b9150611b7d836112aa565b9250828202611b8b816112aa565b91508282048414831517611ba257611ba1611b38565b5b5092915050565b7f494e53554646494349454e545f46554e44530000000000000000000000000000600082015250565b6000611bdf601283611228565b9150611bea82611ba9565b602082019050919050565b60006020820190508181036000830152611c0e81611bd2565b9050919050565b6000608082019050611c2a60008301876113f0565b611c37602083018661140c565b611c4460408301856113b7565b611c5160608301846113f0565b95945050505050565b6000611c65826112aa565b9150611c70836112aa565b9250828201905080821115611c8857611c87611b38565b5b92915050565b7f4e487b7100000000000000000000000000000000000000000000000000000000600052601260045260246000fd5b6000611cc8826112aa565b9150611cd3836112aa565b925082611ce357611ce2611c8e565b5b828204905092915050565b6000611cf9826113ff565b9150611d04836113ff565b9250828203905060ff811115611d1d57611d1c611b38565b5b92915050565b6000611d2e826112aa565b9150611d39836112aa565b9250828203905081811115611d5157611d50611b38565b5b92915050565b6000819050919050565b611d72611d6d826112aa565b611d57565b82525050565b60006c0100000000000000000000000082029050919050565b6000611d9c82611d78565b9050919050565b6000611dae82611d91565b9050919050565b611dc6611dc18261132d565b611da3565b82525050565b6000611dd88287611d61565b602082019150611de88286611db5565b601482019150611df88285611d61565b602082019150611e088284611d61565b60208201915081905095945050505050565b6000611e25826112aa565b9150611e30836112aa565b925082611e4057611e3f611c8e565b5b82820690509291505056fea26469706673582212207619b4ca20b8dfbd9025709408074126621da6aec5f60b3c5b9dad1a21ce3cd864736f6c63430008150033",
  "immutableReferences": {},
  "source": "// SPDX-License-Identifier: MIT\npragma solidity ^0.8.21;\n\n/// @title Red Envelope contract that lets users create and grab time-limited packets\n/// @notice Designed for The Graph indexing: all state-changing actions emit events\ncontract RedEnvelope {\n    struct Envelope {\n        address creator;\n        uint256 totalAmount;\n        uint256 remainingAmount;\n        uint8 totalSlots;\n        uint8 remainingSlots;\n        bool equalShare;\n        uint64 createdAt;\n        bool reclaimed;\n    }\n\n    uint256 public constant CLAIM_WINDOW = 30 minutes;\n    uint8 public constant MIN_SLOTS = 3;\n    uint8 public constant MAX_SLOTS = 10;\n    uint256 private constant MIN_PER_CLAIM = 1 wei;\n\n    uint256 private _nextId = 1;\n    bool private _locked;\n\n    mapping(uint256 => Envelope) public envelopes;\n    mapping(uint256 => mapping(address => bool)) public hasClaimed;\n\n    event EnvelopeCreated(\n        uint256 indexed envelopeId,\n        address indexed creator,\n        uint256 amount,\n        uint8 totalSlots,\n        bool equalShare,\n        uint256 createdAt\n    );\n\n    event EnvelopeClaimed(\n        uint256 indexed envelopeId,\n        address indexed claimer,\n        uint256 amount,\n        uint8 remainingSlots,\n        uint256 remainingAmount\n    );\n\n    event EnvelopeReclaimed(\n        uint256 indexed envelopeId,\n        address indexed creator,\n        uint256 amount\n    );\n\n    //  claim / reclaim \n    modifier nonReentrant() {\n        require(!_locked, \"REENTRANCY_GUARD\");\n        _locked = true;\n        _;\n        _locked = false;\n    }\n\n    /// @notice Create a new red envelope\n    /// @param totalSlots Number of grabs allowed, between MIN_SLOTS and MAX_SLOTS (inclusive)\n    /// @param equalShare If true, each claim is equal; otherwise, random within remaining balance\n    /// @return envelopeId The new envelope id\n    function createEnvelope(uint8 totalSlots, bool equalShare)\n        external\n        payable\n        returns (uint256 envelopeId)\n    {\n        require(totalSlots >= MIN_SLOTS && totalSlots <= MAX_SLOTS, \"INVALID_SLOT_COUNT\");\n        require(msg.value >= totalSlots * MIN_PER_CLAIM, \"INSUFFICIENT_FUNDS\");\n\n        envelopeId = _nextId;\n\n        unchecked {\n            _nextId = envelopeId + 1;\n        }\n\n        envelopes[envelopeId] = Envelope({\n            creator: msg.sender,\n            totalAmount: msg.value,\n            remainingAmount: msg.value,\n            totalSlots: totalSlots,\n            remainingSlots: totalSlots,\n            equalShare: equalShare,\n            createdAt: uint64(block.timestamp),\n            reclaimed: false\n        });\n\n        emit EnvelopeCreated(\n            envelopeId,\n            msg.sender,\n            msg.value,\n            totalSlots,\n            equalShare,\n            block.timestamp\n        );\n    }\n\n    /// @notice Claim from a red envelope by id\n    /// @param envelopeId The id of the envelope to claim\n    function claim(uint256 envelopeId) external nonReentrant {\n        Envelope storage env = envelopes[envelopeId];\n        require(env.creator != address(0), \"ENVELOPE_NOT_FOUND\");\n        require(!_isExpired(env), \"ENVELOPE_EXPIRED\");\n        uint8 remainingSlots = env.remainingSlots;\n        require(remainingSlots > 0, \"NO_REMAINING_SLOTS\");\n        require(!hasClaimed[envelopeId][msg.sender], \"ALREADY_CLAIMED\");\n\n        uint256 remainingAmount = env.remainingAmount;\n        bool equalShare = env.equalShare;\n        uint8 totalSlots = env.totalSlots;\n        uint256 totalAmount = env.totalAmount;\n\n        uint256 payout = _calculatePayout(\n            remainingSlots,\n            remainingAmount,\n            equalShare,\n            totalSlots,\n            totalAmount,\n            envelopeId\n        );\n\n        hasClaimed[envelopeId][msg.sender] = true;\n        unchecked {\n            env.remainingSlots = remainingSlots - 1;\n            env.remainingAmount = remainingAmount - payout;\n        }\n\n        (bool success, ) = msg.sender.call{value: payout}(\"\");\n        require(success, \"TRANSFER_FAILED\");\n\n        emit EnvelopeClaimed(envelopeId, msg.sender, payout, env.remainingSlots, env.remainingAmount);\n    }\n\n    /// @notice Reclaim leftover funds after expiration\n    /// @param envelopeId The id of the envelope\n    function reclaimExpired(uint256 envelopeId) external nonReentrant {\n        Envelope storage env = envelopes[envelopeId];\n        require(env.creator != address(0), \"ENVELOPE_NOT_FOUND\");\n        require(msg.sender == env.creator, \"ONLY_CREATOR\");\n        require(_isExpired(env), \"NOT_EXPIRED\");\n        require(!env.reclaimed, \"ALREADY_RECLAIMED\");\n        require(env.remainingAmount > 0, \"NOTHING_TO_RECLAIM\");\n\n        uint256 payout = env.remainingAmount;\n        env.remainingAmount = 0;\n        env.remainingSlots = 0;\n        env.reclaimed = true;\n\n        (bool success, ) = msg.sender.call{value: payout}(\"\");\n        require(success, \"TRANSFER_FAILED\");\n\n        emit EnvelopeReclaimed(envelopeId, msg.sender, payout);\n    }\n\n    /// @notice Read envelope details for off-chain indexing\n    function getEnvelope(uint256 envelopeId)\n        external\n        view\n        returns (\n            address creator,\n            uint256 totalAmount,\n            uint256 remainingAmount,\n            uint8 totalSlots,\n            uint8 remainingSlots,\n            bool equalShare,\n            uint64 createdAt,\n            bool reclaimed,\n            bool expired\n        )\n    {\n        Envelope storage env = envelopes[envelopeId];\n        require(env.creator != address(0), \"ENVELOPE_NOT_FOUND\");\n\n        creator = env.creator;\n        totalAmount = env.totalAmount;\n        remainingAmount = env.remainingAmount;\n        totalSlots = env.totalSlots;\n        remainingSlots = env.remainingSlots;\n        equalShare = env.equalShare;\n        createdAt = env.createdAt;\n        reclaimed = env.reclaimed;\n        expired = _isExpired(env);\n    }\n\n    /// @notice Check if a user already claimed an envelope\n    function claimed(uint256 envelopeId, address user) external view returns (bool) {\n        return hasClaimed[envelopeId][user];\n    }\n\n    function _calculatePayout(\n        uint8 remainingSlots,\n        uint256 remainingAmount,\n        bool equalShare,\n        uint8 totalSlots,\n        uint256 totalAmount,\n        uint256 envelopeId\n    ) private view returns (uint256) {\n        // \n        if (remainingSlots == 1) {\n            return remainingAmount;\n        }\n\n        if (equalShare) {\n            // /\n            uint256 baseShare = totalAmount / totalSlots;\n            // In case of tiny rounding errors, fall back to remainingAmount\n            if (baseShare == 0 || baseShare > remainingAmount) {\n                return remainingAmount;\n            }\n            return baseShare;\n        }\n\n        //  gas\n        //  MIN_PER_CLAIM\n        uint256 maxPayout = remainingAmount - (uint256(remainingSlots - 1) * MIN_PER_CLAIM);\n        uint256 randomness = uint256(\n            keccak256(abi.encodePacked(block.timestamp, msg.sender, envelopeId, remainingAmount))\n        );\n        uint256 spread = maxPayout - MIN_PER_CLAIM;\n        return MIN_PER_CLAIM + (randomness % spread);\n    }\n\n    function _isExpired(Envelope storage env) private view returns (bool) {\n        return block.timestamp > env.createdAt + CLAIM_WINDOW;\n    }\n\n    receive() external payable {\n        revert(\"DIRECT_DEPOSIT_NOT_ALLOWED\");\n    }\n\n    fallback() external payable {\n        revert(\"DIRECT_DEPOSIT_NOT_ALLOWED\");\n    }\n}\n",
  "sourcePath": "/Users/laotang/Learning/jcyd34/homework/laotang-truffle/contracts/RedEnvelope.sol",
  "compiler": {
    "name": "solc",
    "version": "0.8.21+commit.d9974bed.Emscripten.clang"
  },
  "schemaVersion": "3.4.16",
  "updatedAt": "2025-11-28T10:58:52.618Z",
  "devdoc": {
    "kind": "dev",
    "methods": {
      "claim(uint256)": {
        "params": {
          "envelopeId": "The id of the envelope to claim"
        }
      },
      "createEnvelope(uint8,bool)": {
        "params": {
          "equalShare": "If true, each claim is equal; otherwise, random within remaining balance",
          "totalSlots": "Number of grabs allowed, between MIN_SLOTS and MAX_SLOTS (inclusive)"
        },
        "returns": {
          "envelopeId": "The new envelope id"
        }
      },
      "reclaimExpired(uint256)": {
        "params": {
          "envelopeId": "The id of the envelope"
        }
      }
    },
    "title": "Red Envelope contract that lets users create and grab time-limited packets",
    "version": 1
  },
  "userdoc": {
    "kind": "user",
    "methods": {
      "claim(uint256)": {
        "notice": "Claim from a red envelope by id"
      },
      "claimed(uint256,address)": {
        "notice": "Check if a user already claimed an envelope"
      },
      "createEnvelope(uint8,bool)": {
        "notice": "Create a new red envelope"
      },
      "getEnvelope(uint256)": {
        "notice": "Read envelope details for off-chain indexing"
      },
      "reclaimExpired(uint256)": {
        "notice": "Reclaim leftover funds after expiration"
      }
    },
    "notice": "Designed for The Graph indexing: all state-changing actions emit events",
    "version": 1
  }
}